{
  "address": "0xa1699eD697f3921259DD90A27EC619a83f15f79f",
  "abi": [
    {
      "anonymous": false,
      "inputs": [
        {
          "indexed": false,
          "internalType": "address",
          "name": "user",
          "type": "address"
        },
        {
          "indexed": false,
          "internalType": "uint256",
          "name": "roundId",
          "type": "uint256"
        },
        {
          "indexed": false,
          "internalType": "uint256",
          "name": "amount",
          "type": "uint256"
        }
      ],
      "name": "Claim",
      "type": "event"
    },
    {
      "anonymous": false,
      "inputs": [
        {
          "indexed": false,
          "internalType": "address",
          "name": "user",
          "type": "address"
        },
        {
          "indexed": false,
          "internalType": "uint256",
          "name": "roundId",
          "type": "uint256"
        },
        {
          "indexed": false,
          "internalType": "uint256",
          "name": "amount",
          "type": "uint256"
        }
      ],
      "name": "Collect",
      "type": "event"
    },
    {
      "anonymous": false,
      "inputs": [
        {
          "indexed": false,
          "internalType": "uint8",
          "name": "version",
          "type": "uint8"
        }
      ],
      "name": "Initialized",
      "type": "event"
    },
    {
      "anonymous": false,
      "inputs": [
        {
          "indexed": false,
          "internalType": "uint256",
          "name": "roundId",
          "type": "uint256"
        },
        {
          "indexed": false,
          "internalType": "address",
          "name": "targetToken",
          "type": "address"
        },
        {
          "indexed": false,
          "internalType": "uint256",
          "name": "targetAmount",
          "type": "uint256"
        },
        {
          "indexed": false,
          "internalType": "uint256",
          "name": "startAt",
          "type": "uint256"
        },
        {
          "indexed": false,
          "internalType": "uint256",
          "name": "duration",
          "type": "uint256"
        },
        {
          "indexed": false,
          "internalType": "uint256",
          "name": "lockPeriod",
          "type": "uint256"
        }
      ],
      "name": "NewRound",
      "type": "event"
    },
    {
      "anonymous": false,
      "inputs": [
        {
          "indexed": true,
          "internalType": "address",
          "name": "previousOwner",
          "type": "address"
        },
        {
          "indexed": true,
          "internalType": "address",
          "name": "newOwner",
          "type": "address"
        }
      ],
      "name": "OwnershipTransferStarted",
      "type": "event"
    },
    {
      "anonymous": false,
      "inputs": [
        {
          "indexed": true,
          "internalType": "address",
          "name": "previousOwner",
          "type": "address"
        },
        {
          "indexed": true,
          "internalType": "address",
          "name": "newOwner",
          "type": "address"
        }
      ],
      "name": "OwnershipTransferred",
      "type": "event"
    },
    {
      "anonymous": false,
      "inputs": [
        {
          "indexed": false,
          "internalType": "address",
          "name": "oldCreator",
          "type": "address"
        },
        {
          "indexed": false,
          "internalType": "address",
          "name": "newCreator",
          "type": "address"
        }
      ],
      "name": "SetCreator",
      "type": "event"
    },
    {
      "anonymous": false,
      "inputs": [
        {
          "indexed": false,
          "internalType": "address",
          "name": "oldTaker",
          "type": "address"
        },
        {
          "indexed": false,
          "internalType": "address",
          "name": "newTaker",
          "type": "address"
        }
      ],
      "name": "SetTaker",
      "type": "event"
    },
    {
      "anonymous": false,
      "inputs": [
        {
          "indexed": false,
          "internalType": "address",
          "name": "taker",
          "type": "address"
        },
        {
          "indexed": false,
          "internalType": "uint256",
          "name": "roundId",
          "type": "uint256"
        },
        {
          "indexed": false,
          "internalType": "address",
          "name": "targetToken",
          "type": "address"
        },
        {
          "indexed": false,
          "internalType": "uint256",
          "name": "amount",
          "type": "uint256"
        }
      ],
      "name": "TakeTokens",
      "type": "event"
    },
    {
      "anonymous": false,
      "inputs": [
        {
          "indexed": false,
          "internalType": "address",
          "name": "user",
          "type": "address"
        },
        {
          "indexed": false,
          "internalType": "uint256",
          "name": "roundId",
          "type": "uint256"
        },
        {
          "indexed": false,
          "internalType": "uint256",
          "name": "amount",
          "type": "uint256"
        }
      ],
      "name": "Withdraw",
      "type": "event"
    },
    {
      "inputs": [],
      "name": "BASE_POINT",
      "outputs": [
        {
          "internalType": "uint256",
          "name": "",
          "type": "uint256"
        }
      ],
      "stateMutability": "view",
      "type": "function"
    },
    {
      "inputs": [],
      "name": "acceptOwnership",
      "outputs": [],
      "stateMutability": "nonpayable",
      "type": "function"
    },
    {
      "inputs": [
        {
          "internalType": "uint256",
          "name": "roundId",
          "type": "uint256"
        }
      ],
      "name": "claim",
      "outputs": [],
      "stateMutability": "nonpayable",
      "type": "function"
    },
    {
      "inputs": [
        {
          "internalType": "uint256",
          "name": "roundId",
          "type": "uint256"
        },
        {
          "internalType": "uint256",
          "name": "amount",
          "type": "uint256"
        }
      ],
      "name": "collect",
      "outputs": [],
      "stateMutability": "payable",
      "type": "function"
    },
    {
      "inputs": [
        {
          "internalType": "address",
          "name": "_targetToken",
          "type": "address"
        },
        {
          "internalType": "uint256",
          "name": "_targetAmount",
          "type": "uint256"
        },
        {
          "internalType": "uint256",
          "name": "_interestRate",
          "type": "uint256"
        },
        {
          "internalType": "uint256",
          "name": "_startAt",
          "type": "uint256"
        },
        {
          "internalType": "uint256",
          "name": "_duration",
          "type": "uint256"
        },
        {
          "internalType": "uint256",
          "name": "_lockPeriod",
          "type": "uint256"
        }
      ],
      "name": "createRound",
      "outputs": [],
      "stateMutability": "nonpayable",
      "type": "function"
    },
    {
      "inputs": [],
      "name": "creator",
      "outputs": [
        {
          "internalType": "address",
          "name": "",
          "type": "address"
        }
      ],
      "stateMutability": "view",
      "type": "function"
    },
    {
      "inputs": [],
      "name": "currentRoundId",
      "outputs": [
        {
          "internalType": "uint256",
          "name": "",
          "type": "uint256"
        }
      ],
      "stateMutability": "view",
      "type": "function"
    },
    {
      "inputs": [
        {
          "internalType": "address",
          "name": "_creator",
          "type": "address"
        },
        {
          "internalType": "address",
          "name": "_taker",
          "type": "address"
        }
      ],
      "name": "initialize",
      "outputs": [],
      "stateMutability": "nonpayable",
      "type": "function"
    },
    {
      "inputs": [],
      "name": "owner",
      "outputs": [
        {
          "internalType": "address",
          "name": "",
          "type": "address"
        }
      ],
      "stateMutability": "view",
      "type": "function"
    },
    {
      "inputs": [],
      "name": "pendingOwner",
      "outputs": [
        {
          "internalType": "address",
          "name": "",
          "type": "address"
        }
      ],
      "stateMutability": "view",
      "type": "function"
    },
    {
      "inputs": [
        {
          "internalType": "address",
          "name": "account",
          "type": "address"
        },
        {
          "internalType": "uint256",
          "name": "roundId",
          "type": "uint256"
        }
      ],
      "name": "pendingReward",
      "outputs": [
        {
          "internalType": "uint256",
          "name": "",
          "type": "uint256"
        }
      ],
      "stateMutability": "view",
      "type": "function"
    },
    {
      "inputs": [],
      "name": "renounceOwnership",
      "outputs": [],
      "stateMutability": "nonpayable",
      "type": "function"
    },
    {
      "inputs": [
        {
          "internalType": "uint256",
          "name": "",
          "type": "uint256"
        }
      ],
      "name": "round",
      "outputs": [
        {
          "internalType": "address",
          "name": "targetToken",
          "type": "address"
        },
        {
          "internalType": "uint256",
          "name": "targetAmount",
          "type": "uint256"
        },
        {
          "internalType": "uint256",
          "name": "interestRate",
          "type": "uint256"
        },
        {
          "internalType": "uint256",
          "name": "startAt",
          "type": "uint256"
        },
        {
          "internalType": "uint256",
          "name": "duration",
          "type": "uint256"
        },
        {
          "internalType": "uint256",
          "name": "lockPerioad",
          "type": "uint256"
        },
        {
          "internalType": "uint256",
          "name": "currentAmount",
          "type": "uint256"
        },
        {
          "internalType": "bool",
          "name": "isTaken",
          "type": "bool"
        }
      ],
      "stateMutability": "view",
      "type": "function"
    },
    {
      "inputs": [
        {
          "internalType": "address",
          "name": "newCreator",
          "type": "address"
        }
      ],
      "name": "setCreator",
      "outputs": [],
      "stateMutability": "nonpayable",
      "type": "function"
    },
    {
      "inputs": [
        {
          "internalType": "address",
          "name": "newTaker",
          "type": "address"
        }
      ],
      "name": "setTaker",
      "outputs": [],
      "stateMutability": "nonpayable",
      "type": "function"
    },
    {
      "inputs": [
        {
          "internalType": "uint256",
          "name": "roundId",
          "type": "uint256"
        }
      ],
      "name": "takeTokens",
      "outputs": [],
      "stateMutability": "nonpayable",
      "type": "function"
    },
    {
      "inputs": [],
      "name": "taker",
      "outputs": [
        {
          "internalType": "address",
          "name": "",
          "type": "address"
        }
      ],
      "stateMutability": "view",
      "type": "function"
    },
    {
      "inputs": [
        {
          "internalType": "address",
          "name": "newOwner",
          "type": "address"
        }
      ],
      "name": "transferOwnership",
      "outputs": [],
      "stateMutability": "nonpayable",
      "type": "function"
    },
    {
      "inputs": [
        {
          "internalType": "address",
          "name": "",
          "type": "address"
        },
        {
          "internalType": "uint256",
          "name": "",
          "type": "uint256"
        }
      ],
      "name": "userInfo",
      "outputs": [
        {
          "internalType": "uint256",
          "name": "amount",
          "type": "uint256"
        },
        {
          "internalType": "uint256",
          "name": "lastClaimAt",
          "type": "uint256"
        },
        {
          "internalType": "bool",
          "name": "isWithdrawn",
          "type": "bool"
        }
      ],
      "stateMutability": "view",
      "type": "function"
    },
    {
      "inputs": [
        {
          "internalType": "uint256",
          "name": "roundId",
          "type": "uint256"
        }
      ],
      "name": "withdraw",
      "outputs": [],
      "stateMutability": "nonpayable",
      "type": "function"
    }
  ],
  "transactionHash": "0xc5d35f04307fe1a13747558f54b1d1d65cfbef2e89923d203631c5605f54c34d",
  "args": [],
  "numDeployments": 2,
  "solcInputHash": "6e2626e9f96cd9d01ae1ae529aa31b3b",
  "bytecode": "0x608060405234801561001057600080fd5b50611e08806100206000396000f3fe60806040526004361061011f5760003560e01c8063715018a6116100a0578063cfa6f82711610064578063cfa6f827146103de578063e30c3978146103f1578063e4e64f4a1461040f578063f2fde38b1461042f578063f430cf0d1461044f57600080fd5b8063715018a614610360578063782b36021461037557806379ba5097146103955780638da5cb5b146103aa5780639cbe5efd146103c857600080fd5b806334d5f37b116100e757806334d5f37b1461022e578063379607f5146102e05780633f51601814610300578063428d189c14610320578063485cc9551461034057600080fd5b806302d05d3f146101245780631135daeb1461016157806311fca4b71461018557806321ce919d146101a75780632e1a7d4d1461020e575b600080fd5b34801561013057600080fd5b50609754610144906001600160a01b031681565b6040516001600160a01b0390911681526020015b60405180910390f35b34801561016d57600080fd5b5061017761271081565b604051908152602001610158565b34801561019157600080fd5b506101a56101a0366004611b1e565b61046f565b005b3480156101b357600080fd5b506101f16101c2366004611b40565b609b60209081526000928352604080842090915290825290208054600182015460029092015490919060ff1683565b604080519384526020840192909252151590820152606001610158565b34801561021a57600080fd5b506101a5610229366004611b6a565b610483565b34801561023a57600080fd5b50610299610249366004611b6a565b609a60205260009081526040902080546001820154600283015460038401546004850154600586015460068701546007909701546001600160a01b03909616969495939492939192909160ff1688565b604080516001600160a01b0390991689526020890197909752958701949094526060860192909252608085015260a084015260c0830152151560e082015261010001610158565b3480156102ec57600080fd5b506101a56102fb366004611b6a565b610743565b34801561030c57600080fd5b506101a561031b366004611b1e565b610935565b34801561032c57600080fd5b506101a561033b366004611b6a565b610946565b34801561034c57600080fd5b506101a561035b366004611b83565b610c61565b34801561036c57600080fd5b506101a5610d8a565b34801561038157600080fd5b50609854610144906001600160a01b031681565b3480156103a157600080fd5b506101a5610d9e565b3480156103b657600080fd5b506033546001600160a01b0316610144565b3480156103d457600080fd5b5061017760995481565b6101a56103ec366004611bb6565b610e15565b3480156103fd57600080fd5b506065546001600160a01b0316610144565b34801561041b57600080fd5b506101a561042a366004611bd8565b61122e565b34801561043b57600080fd5b506101a561044a366004611b1e565b611420565b34801561045b57600080fd5b5061017761046a366004611b40565b611491565b61047761157c565b610480816115d6565b50565b8060008111801561049657506099548111155b6104bb5760405162461bcd60e51b81526004016104b290611c22565b60405180910390fd5b6000828152609a60209081526040808320338452609b8352818420868552909252909120600281015460ff16156105275760405162461bcd60e51b815260206004820152601060248201526f616c726561647920776974686472617760801b60448201526064016104b2565b8160050154826004015483600301546105409190611c61565b61054a9190611c61565b42116105a35760405162461bcd60e51b815260206004820152602260248201527f77697468647261773a206974206973206e6f742074696d6520746f20756e6c6f604482015261636b60f01b60648201526084016104b2565b60028101805460ff1916600117905581546001600160a01b03166106255780544710156106125760405162461bcd60e51b815260206004820152601c60248201527f77697468647261773a2062616c616e6365206e6f7420656e6f7567680000000060448201526064016104b2565b61062033826000015461163f565b6106fb565b805482546040516370a0823160e01b81523060048201526001600160a01b03909116906370a0823190602401602060405180830381865afa15801561066e573d6000803e3d6000fd5b505050506040513d601f19601f820116820180604052508101906106929190611c74565b10156106e05760405162461bcd60e51b815260206004820152601c60248201527f77697468647261773a2062616c616e6365206e6f7420656e6f7567680000000060448201526064016104b2565b805482546106fb916001600160a01b039091169033906116d8565b8054604080513381526020810187905280820192909252517ff279e6a1f5e320cca91135676d9cb6e44ca8a08c0b88342bcdb1144f6511b5689181900360600190a150505050565b8060008111801561075657506099548111155b6107725760405162461bcd60e51b81526004016104b290611c22565b600061077e3384611491565b90508060000361078d57505050565b6000838152609a60209081526040808320338452609b835281842087855290925290912042600182015581546001600160a01b031661082157824710156108125760405162461bcd60e51b81526020600482015260196024820152780c6d8c2d2da7440c4c2d8c2dcc6ca40dcdee840cadcdeeaced603b1b60448201526064016104b2565b61081c338461163f565b6108ec565b81546040516370a0823160e01b815230600482015284916001600160a01b0316906370a0823190602401602060405180830381865afa158015610868573d6000803e3d6000fd5b505050506040513d601f19601f8201168201806040525081019061088c9190611c74565b10156108d65760405162461bcd60e51b81526020600482015260196024820152780c6d8c2d2da7440c4c2d8c2dcc6ca40dcdee840cadcdeeaced603b1b60448201526064016104b2565b81546108ec906001600160a01b031633856116d8565b60408051338152602081018790529081018490527f34fcbac0073d7c3d388e51312faf357774904998eeb8fca628b9e6f65ee1cbf7906060015b60405180910390a15050505050565b61093d61157c565b6104808161173b565b8060008111801561095957506099548111155b6109755760405162461bcd60e51b81526004016104b290611c22565b6098546001600160a01b031633146109c55760405162461bcd60e51b81526020600482015260136024820152721bdb9b1e481d185ad95c8818d85b8818d85b1b606a1b60448201526064016104b2565b6000828152609a60205260409020600481015460038201546109e79190611c61565b421015610a365760405162461bcd60e51b815260206004820152601b60248201527f7468697320726f756e64206861736e277420656e64656420796574000000000060448201526064016104b2565b600781015460ff1615610aa35760405162461bcd60e51b815260206004820152602f60248201527f746f6b656e732074686174207468697320726f756e6420636f6c6c656374656460448201526e103430b9903132b2b7103a30b5b2b760891b60648201526084016104b2565b60078101805460ff1916600117905580546001600160a01b0316610b28578060060154471015610b155760405162461bcd60e51b815260206004820152601f60248201527f74617267657420746f6b656e2062616c616e6365206e6f7420656e6f7567680060448201526064016104b2565b610b2333826006015461163f565b610c05565b805460068201546040516370a0823160e01b81523060048201526001600160a01b039092169182906370a0823190602401602060405180830381865afa158015610b76573d6000803e3d6000fd5b505050506040513d601f19601f82011682018060405250810190610b9a9190611c74565b1015610be85760405162461bcd60e51b815260206004820152601f60248201527f74617267657420746f6b656e2062616c616e6365206e6f7420656e6f7567680060448201526064016104b2565b6006820154610c03906001600160a01b0383169033906116d8565b505b8054600682015460408051338152602081018790526001600160a01b039093169083015260608201527facd68be3246285b8a2221f3c2d944111777ace937b42847995fb9197f7e8d184906080015b60405180910390a1505050565b600054610100900460ff1615808015610c815750600054600160ff909116105b80610c9b5750303b158015610c9b575060005460ff166001145b610cfe5760405162461bcd60e51b815260206004820152602e60248201527f496e697469616c697a61626c653a20636f6e747261637420697320616c72656160448201526d191e481a5b9a5d1a585b1a5e995960921b60648201526084016104b2565b6000805460ff191660011790558015610d21576000805461ff0019166101001790555b610d296117a4565b610d316117cb565b610d3a8361173b565b610d43826115d6565b8015610d85576000805461ff0019169055604051600181527f7f26b83ff96e1f2b6a682f133852f6798a09c465da95921460cefb384740249890602001610c54565b505050565b610d9261157c565b610d9c60006117f7565b565b60655433906001600160a01b03168114610e0c5760405162461bcd60e51b815260206004820152602960248201527f4f776e61626c6532537465703a2063616c6c6572206973206e6f7420746865206044820152683732bb9037bbb732b960b91b60648201526084016104b2565b610480816117f7565b81600081118015610e2857506099548111155b610e445760405162461bcd60e51b81526004016104b290611c22565b6000838152609a602052604090206003810154421015610eb55760405162461bcd60e51b815260206004820152602660248201527f636f6c6c6563743a207468697320726f756e64206861736e27742073746172746044820152651959081e595d60d21b60648201526084016104b2565b80600401548160030154610ec99190611c61565b421115610f185760405162461bcd60e51b815260206004820152601d60248201527f636f6c6c6563743a207468697320726f756e642068617320656e64656400000060448201526064016104b2565b8060010154838260060154610f2d9190611c61565b1115610f925760405162461bcd60e51b815260206004820152602e60248201527f636f6c6c6563743a20636f6c6c656374656420616d6f756e742065786365656460448201526d081d185c99d95d08185b5bdd5b9d60921b60648201526084016104b2565b80546001600160a01b0316610ff557348314610ff05760405162461bcd60e51b815260206004820181905260248201527f636f6c6c6563743a20696e76616c6964207472616e7366657220616d6f756e7460448201526064016104b2565b611197565b80546040516370a0823160e01b81523360048201526001600160a01b0390911690849082906370a0823190602401602060405180830381865afa158015611040573d6000803e3d6000fd5b505050506040513d601f19601f820116820180604052508101906110649190611c74565b10156110b25760405162461bcd60e51b815260206004820152601b60248201527f636f6c6c6563743a2062616c616e6365206e6f7420656e6f756768000000000060448201526064016104b2565b604051636eb1769f60e11b815233600482015230602482015284906001600160a01b0383169063dd62ed3e90604401602060405180830381865afa1580156110fe573d6000803e3d6000fd5b505050506040513d601f19601f820116820180604052508101906111229190611c74565b10156111675760405162461bcd60e51b8152602060048201526014602482015273636f6c6c6563743a206e6f7420617070726f766560601b60448201526064016104b2565b61117c6001600160a01b038216333087611810565b838260060160008282546111909190611c61565b9091555050505b336000908152609b6020908152604080832087845290915281208054909185918391906111c5908490611c61565b909155505060018101546000036111f057816004015482600301546111ea9190611c61565b60018201555b60408051338152602081018790529081018590527f4a1c185b7b5da020829d63d69222d8602aa53a6b7800a73ee6e3e15a625d863d90606001610926565b6097546001600160a01b031633146112805760405162461bcd60e51b81526020600482015260156024820152741bdb9b1e4818dc99585d1bdc8818d85b8818d85b1b605a1b60448201526064016104b2565b428310156112d05760405162461bcd60e51b815260206004820152601860248201527f73746172742074696d65206c657373207468616e206e6f77000000000000000060448201526064016104b2565b84158015906112de57508115155b6113455760405162461bcd60e51b815260206004820152603260248201527f696e636f727265637420706172616d733a20746172676574416d6f756e74206f60448201527172206475726174696f6e206973207a65726f60701b60648201526084016104b2565b6099805490600061135583611c8d565b9091555050609980546000908152609a6020908152604080832080546001600160a01b0319166001600160a01b038c169081178255600182018b9055600282018a9055600682019490945560038101889055600481018790556005810186905560078101805460ff191690559354815190815291820192909252908101879052606081018590526080810184905260a081018390527f9b5590a51a88a32ff4b396ba564b9cdfdcae385dfd3871e17229dff8dad553199060c00160405180910390a150505050505050565b61142861157c565b606580546001600160a01b0383166001600160a01b031990911681179091556114596033546001600160a01b031690565b6001600160a01b03167f38d16b8cac22d99fc7c124b9cd0de2d3fa1faef420bfe791d8c362d765e2270060405160405180910390a350565b6001600160a01b0382166000908152609b602090815260408083208484528252808320609a90925282206005810154600482015460038301548592916114d691611c61565b6114e09190611c61565b835490915015806114f5575080836001015410155b80611504575082600101544211155b156115155760009350505050611576565b6000814210156115255742611527565b815b9050826005015461271061153b9190611ca6565b600185015461154a9083611cbd565b6002850154865461155b9190611ca6565b6115659190611ca6565b61156f9190611cd0565b9450505050505b92915050565b6033546001600160a01b03163314610d9c5760405162461bcd60e51b815260206004820181905260248201527f4f776e61626c653a2063616c6c6572206973206e6f7420746865206f776e657260448201526064016104b2565b609854604080516001600160a01b03928316815291831660208301527ffc278d7e8bb416cc071a28e3f8c0af8c5d522849ee147b75894e568cd0866fe6910160405180910390a1609880546001600160a01b0319166001600160a01b0392909216919091179055565b6000826001600160a01b03168260405160006040518083038185875af1925050503d806000811461168c576040519150601f19603f3d011682016040523d82523d6000602084013e611691565b606091505b5050905080610d855760405162461bcd60e51b81526020600482015260136024820152721d1c985b9cd9995c881192530819985a5b1959606a1b60448201526064016104b2565b6040516001600160a01b038316602482015260448101829052610d8590849063a9059cbb60e01b906064015b60408051601f198184030181529190526020810180516001600160e01b03166001600160e01b03199093169290921790915261184e565b609754604080516001600160a01b03928316815291831660208301527f34e823afb4e382b2616b40f3134dcdb1f77074e0676f0728293416144d5edf49910160405180910390a1609780546001600160a01b0319166001600160a01b0392909216919091179055565b600054610100900460ff16610d9c5760405162461bcd60e51b81526004016104b290611cf2565b600054610100900460ff166117f25760405162461bcd60e51b81526004016104b290611cf2565b610d9c335b606580546001600160a01b031916905561048081611920565b6040516001600160a01b03808516602483015283166044820152606481018290526118489085906323b872dd60e01b90608401611704565b50505050565b60006118a3826040518060400160405280602081526020017f5361666545524332303a206c6f772d6c6576656c2063616c6c206661696c6564815250856001600160a01b03166119729092919063ffffffff16565b805190915015610d8557808060200190518101906118c19190611d3d565b610d855760405162461bcd60e51b815260206004820152602a60248201527f5361666545524332303a204552433230206f7065726174696f6e20646964206e6044820152691bdd081cdd58d8d9595960b21b60648201526084016104b2565b603380546001600160a01b038381166001600160a01b0319831681179093556040519116919082907f8be0079c531659141344cd1fd0a4f28419497f9722a3daafe3b4186f6b6457e090600090a35050565b60606119818484600085611989565b949350505050565b6060824710156119ea5760405162461bcd60e51b815260206004820152602660248201527f416464726573733a20696e73756666696369656e742062616c616e636520666f6044820152651c8818d85b1b60d21b60648201526084016104b2565b600080866001600160a01b03168587604051611a069190611d83565b60006040518083038185875af1925050503d8060008114611a43576040519150601f19603f3d011682016040523d82523d6000602084013e611a48565b606091505b5091509150611a5987838387611a64565b979650505050505050565b60608315611ad3578251600003611acc576001600160a01b0385163b611acc5760405162461bcd60e51b815260206004820152601d60248201527f416464726573733a2063616c6c20746f206e6f6e2d636f6e747261637400000060448201526064016104b2565b5081611981565b6119818383815115611ae85781518083602001fd5b8060405162461bcd60e51b81526004016104b29190611d9f565b80356001600160a01b0381168114611b1957600080fd5b919050565b600060208284031215611b3057600080fd5b611b3982611b02565b9392505050565b60008060408385031215611b5357600080fd5b611b5c83611b02565b946020939093013593505050565b600060208284031215611b7c57600080fd5b5035919050565b60008060408385031215611b9657600080fd5b611b9f83611b02565b9150611bad60208401611b02565b90509250929050565b60008060408385031215611bc957600080fd5b50508035926020909101359150565b60008060008060008060c08789031215611bf157600080fd5b611bfa87611b02565b9860208801359850604088013597606081013597506080810135965060a00135945092505050565b6020808252600f908201526e1c9bdd5b99081b9bdd08195e1a5cdd608a1b604082015260600190565b634e487b7160e01b600052601160045260246000fd5b8082018082111561157657611576611c4b565b600060208284031215611c8657600080fd5b5051919050565b600060018201611c9f57611c9f611c4b565b5060010190565b808202811582820484141761157657611576611c4b565b8181038181111561157657611576611c4b565b600082611ced57634e487b7160e01b600052601260045260246000fd5b500490565b6020808252602b908201527f496e697469616c697a61626c653a20636f6e7472616374206973206e6f74206960408201526a6e697469616c697a696e6760a81b606082015260800190565b600060208284031215611d4f57600080fd5b81518015158114611b3957600080fd5b60005b83811015611d7a578181015183820152602001611d62565b50506000910152565b60008251611d95818460208701611d5f565b9190910192915050565b6020815260008251806020840152611dbe816040850160208701611d5f565b601f01601f1916919091016040019291505056fea264697066735822122018a90cbbd9020979e91b7d3d7fb237fbcf18636a848697ec9a6e792d8fbf98bd64736f6c63430008110033",
  "devdoc": {
    "kind": "dev",
    "methods": {
      "acceptOwnership()": {
        "details": "The new owner accepts the ownership transfer."
      },
      "owner()": {
        "details": "Returns the address of the current owner."
      },
      "pendingOwner()": {
        "details": "Returns the address of the pending owner."
      },
      "renounceOwnership()": {
        "details": "Leaves the contract without owner. It will not be possible to call `onlyOwner` functions anymore. Can only be called by the current owner. NOTE: Renouncing ownership will leave the contract without an owner, thereby removing any functionality that is only available to the owner."
      },
      "transferOwnership(address)": {
        "details": "Starts the ownership transfer of the contract to a new account. Replaces the pending transfer if there is one. Can only be called by the current owner."
      }
    },
    "version": 1
  },
  "userdoc": {
    "kind": "user",
    "methods": {},
    "version": 1
  },
  "storageLayout": {
    "storage": [
      {
        "astId": 244,
        "contract": "contracts/Fundraising.sol:Fundraising",
        "label": "_initialized",
        "offset": 0,
        "slot": "0",
        "type": "t_uint8"
      },
      {
        "astId": 247,
        "contract": "contracts/Fundraising.sol:Fundraising",
        "label": "_initializing",
        "offset": 1,
        "slot": "0",
        "type": "t_bool"
      },
      {
        "astId": 731,
        "contract": "contracts/Fundraising.sol:Fundraising",
        "label": "__gap",
        "offset": 0,
        "slot": "1",
        "type": "t_array(t_uint256)50_storage"
      },
      {
        "astId": 116,
        "contract": "contracts/Fundraising.sol:Fundraising",
        "label": "_owner",
        "offset": 0,
        "slot": "51",
        "type": "t_address"
      },
      {
        "astId": 236,
        "contract": "contracts/Fundraising.sol:Fundraising",
        "label": "__gap",
        "offset": 0,
        "slot": "52",
        "type": "t_array(t_uint256)49_storage"
      },
      {
        "astId": 25,
        "contract": "contracts/Fundraising.sol:Fundraising",
        "label": "_pendingOwner",
        "offset": 0,
        "slot": "101",
        "type": "t_address"
      },
      {
        "astId": 104,
        "contract": "contracts/Fundraising.sol:Fundraising",
        "label": "__gap",
        "offset": 0,
        "slot": "102",
        "type": "t_array(t_uint256)49_storage"
      },
      {
        "astId": 2584,
        "contract": "contracts/Fundraising.sol:Fundraising",
        "label": "creator",
        "offset": 0,
        "slot": "151",
        "type": "t_address"
      },
      {
        "astId": 2586,
        "contract": "contracts/Fundraising.sol:Fundraising",
        "label": "taker",
        "offset": 0,
        "slot": "152",
        "type": "t_address"
      },
      {
        "astId": 2588,
        "contract": "contracts/Fundraising.sol:Fundraising",
        "label": "currentRoundId",
        "offset": 0,
        "slot": "153",
        "type": "t_uint256"
      },
      {
        "astId": 2593,
        "contract": "contracts/Fundraising.sol:Fundraising",
        "label": "round",
        "offset": 0,
        "slot": "154",
        "type": "t_mapping(t_uint256,t_struct(Round)2572_storage)"
      },
      {
        "astId": 2600,
        "contract": "contracts/Fundraising.sol:Fundraising",
        "label": "userInfo",
        "offset": 0,
        "slot": "155",
        "type": "t_mapping(t_address,t_mapping(t_uint256,t_struct(UserInfo)2579_storage))"
      }
    ],
    "types": {
      "t_address": {
        "encoding": "inplace",
        "label": "address",
        "numberOfBytes": "20"
      },
      "t_array(t_uint256)49_storage": {
        "base": "t_uint256",
        "encoding": "inplace",
        "label": "uint256[49]",
        "numberOfBytes": "1568"
      },
      "t_array(t_uint256)50_storage": {
        "base": "t_uint256",
        "encoding": "inplace",
        "label": "uint256[50]",
        "numberOfBytes": "1600"
      },
      "t_bool": {
        "encoding": "inplace",
        "label": "bool",
        "numberOfBytes": "1"
      },
      "t_mapping(t_address,t_mapping(t_uint256,t_struct(UserInfo)2579_storage))": {
        "encoding": "mapping",
        "key": "t_address",
        "label": "mapping(address => mapping(uint256 => struct Fundraising.UserInfo))",
        "numberOfBytes": "32",
        "value": "t_mapping(t_uint256,t_struct(UserInfo)2579_storage)"
      },
      "t_mapping(t_uint256,t_struct(Round)2572_storage)": {
        "encoding": "mapping",
        "key": "t_uint256",
        "label": "mapping(uint256 => struct Fundraising.Round)",
        "numberOfBytes": "32",
        "value": "t_struct(Round)2572_storage"
      },
      "t_mapping(t_uint256,t_struct(UserInfo)2579_storage)": {
        "encoding": "mapping",
        "key": "t_uint256",
        "label": "mapping(uint256 => struct Fundraising.UserInfo)",
        "numberOfBytes": "32",
        "value": "t_struct(UserInfo)2579_storage"
      },
      "t_struct(Round)2572_storage": {
        "encoding": "inplace",
        "label": "struct Fundraising.Round",
        "members": [
          {
            "astId": 2557,
            "contract": "contracts/Fundraising.sol:Fundraising",
            "label": "targetToken",
            "offset": 0,
            "slot": "0",
            "type": "t_address"
          },
          {
            "astId": 2559,
            "contract": "contracts/Fundraising.sol:Fundraising",
            "label": "targetAmount",
            "offset": 0,
            "slot": "1",
            "type": "t_uint256"
          },
          {
            "astId": 2561,
            "contract": "contracts/Fundraising.sol:Fundraising",
            "label": "interestRate",
            "offset": 0,
            "slot": "2",
            "type": "t_uint256"
          },
          {
            "astId": 2563,
            "contract": "contracts/Fundraising.sol:Fundraising",
            "label": "startAt",
            "offset": 0,
            "slot": "3",
            "type": "t_uint256"
          },
          {
            "astId": 2565,
            "contract": "contracts/Fundraising.sol:Fundraising",
            "label": "duration",
            "offset": 0,
            "slot": "4",
            "type": "t_uint256"
          },
          {
            "astId": 2567,
            "contract": "contracts/Fundraising.sol:Fundraising",
            "label": "lockPerioad",
            "offset": 0,
            "slot": "5",
            "type": "t_uint256"
          },
          {
            "astId": 2569,
            "contract": "contracts/Fundraising.sol:Fundraising",
            "label": "currentAmount",
            "offset": 0,
            "slot": "6",
            "type": "t_uint256"
          },
          {
            "astId": 2571,
            "contract": "contracts/Fundraising.sol:Fundraising",
            "label": "isTaken",
            "offset": 0,
            "slot": "7",
            "type": "t_bool"
          }
        ],
        "numberOfBytes": "256"
      },
      "t_struct(UserInfo)2579_storage": {
        "encoding": "inplace",
        "label": "struct Fundraising.UserInfo",
        "members": [
          {
            "astId": 2574,
            "contract": "contracts/Fundraising.sol:Fundraising",
            "label": "amount",
            "offset": 0,
            "slot": "0",
            "type": "t_uint256"
          },
          {
            "astId": 2576,
            "contract": "contracts/Fundraising.sol:Fundraising",
            "label": "lastClaimAt",
            "offset": 0,
            "slot": "1",
            "type": "t_uint256"
          },
          {
            "astId": 2578,
            "contract": "contracts/Fundraising.sol:Fundraising",
            "label": "isWithdrawn",
            "offset": 0,
            "slot": "2",
            "type": "t_bool"
          }
        ],
        "numberOfBytes": "96"
      },
      "t_uint256": {
        "encoding": "inplace",
        "label": "uint256",
        "numberOfBytes": "32"
      },
      "t_uint8": {
        "encoding": "inplace",
        "label": "uint8",
        "numberOfBytes": "1"
      }
    }
  }
}